:100000000EC01DC01CC01BC01BC019C018C017C02B
:1000100016C015C014C013C012C011C010C01124E6
:100020001FBECFE5D2E0DEBFCDBF20E0A0E6B0E04E
:1000300001C01D92A236B207E1F77AD0E9C0E0CF45
:100040001F920F920FB60F9211248F939F9383EA02
:100050008FBD81E090E090936100809360009F915C
:100060008F910F900FBE0F901F9018959093610085
:1000700080936000089580916000909161000895E0
:100080009C012150310923303105A0F497B1982B00
:1000900097B9379A369A3699FECF369A369B02C070
:1000A0003798FCCF84B135B190E027B12E7E27B9C7
:1000B000932B089580E090E0089520E030E0281729
:1000C000390724F400002F5F3F4FF9CF089520E057
:1000D00030E0281739074CF4E9EFF0E03197F1F7F9
:1000E00000C000002F5F3F4FF4CF089598B321E088
:1000F00030E0082E01C0220F0A94EAF7922798BB3D
:10010000089598B321E030E0082E01C0220F0A9430
:10011000EAF7922B98BB089598B321E030E0082EBF
:1001200001C0220F0A94EAF72095292328BB0895DD
:10013000B89AC09880B78F7C80BF80B78F7C80BF13
:1001400080B7816080BF80B7817F80BF89B78460BE
:1001500089BF78941FBC83E090E092DF60E070E09C
:10016000CB0111E02DEC3CEC4CE451E429D0181605
:10017000E4F4C3E0D0E083EE94E02091600030919D
:1001800061002130310539F428B3212728BB1092B2
:100190006100109260000197009779F7C0988FE096
:1001A00090E095DF2197209731F784E090E068DFB9
:1001B0008BE291E08CDF60E070E080EC91E4D2CFE4
:1001C00003D008F48FEF0895990F0008550FAA0B7C
:1001D000E0E8FEEF16161706E807F907C0F012165A
:1001E0001306E407F50798F0621B730B840B950B5D
:1001F00039F40A2661F0232B242B252B21F40895B2
:100200000A2609F4A140A6958FEF811D811D08954E
:04021000F894FFCF90
:00000001FF
