:100000000EC01DC01CC01BC02FC019C018C017C017
:1000100016C015C014C013C09EC011C010C011245A
:100020001FBECFE5D2E0DEBFCDBF20E0A0E6B0E04E
:1000300001C01D92A236B207E1F710D124C1E0CF72
:1000400097B1982B97B9379A369A3699FECF369A48
:10005000369B02C03798FCCF84B125B197B19E7E04
:1000600097B990E0922B08951F920F920FB60F92BE
:1000700011248F939F9383EA8FBD81E090E090934A
:100080006100809360009F918F910F900FBE0F9041
:100090001F9018959093610080936000089580915F
:1000A00060009091610008959C0121503109233036
:1000B000310508F4C5CF80E090E0089520E030E0FD
:1000C0002817390724F400002F5F3F4FF9CF089518
:1000D00020E030E0281739074CF4E9EFF0E03197E1
:1000E000F1F700C000002F5F3F4FF4CF089598B3A1
:1000F00021E030E0082E01C0220F0A94EAF792278F
:1001000098BB089598B321E030E0082E01C0220F7B
:100110000A94EAF7922B98BB089598B321E030E057
:10012000082E01C0220F0A94EAF72095292328BB44
:100130000895F89404B603FE07C084B7877F84BF90
:1001400081B5886181BD11BCA89588E181BD8FE42E
:1001500081BD789408951F920F920FB60F921124CB
:100160000F900FBE0F901F90189580B78F7C80BFA7
:1001700080B78F7C80BF80B7816080BF80B7817F70
:1001800080BF89B7846089BF78941FBC0895B89AEE
:10019000C098EBDFCECF379885B7877E806185BF6B
:1001A00085B7806285BF85B7806285BF889585B732
:1001B0008F7D85BF85B78F7D85BF379A08951F9343
:1001C000CF93DF937894C3E0D0E011E083EE94E026
:1001D00020916000309161002130310539F428B35D
:1001E000212728BB109261001092600001970097B0
:1001F00079F7C0988FE090E06BDF2197209731F777
:10020000F894DF91CF911F9108951F93CF93DF93BF
:10021000789484E690E05CDFC3E0D0E011E081EA0E
:100220009FE020916000309161002130310539F468
:1002300028B3212728BB109261001092600001971B
:10024000009779F7C0988FE090E042DF21972097E0
:1002500031F7F894DF91CF911F91089598DFD5DFA2
:1002600082E090E021DF82E090E0EADEEC0183E0D2
:1002700090E0E6DE2DDFC335D34014F0A0DF01C0EF
:0A0280008ADF7894F0CFF894FFCFE6
:00000001FF
