:100000000EC028C027C026C03AC024C023C022C0CA
:1000100021C020C01FC01EC039C11CC01BC011247C
:100020001FBECFE5D2E0DEBFCDBF10E0A0E6B0E05E
:10003000E6E2F3E002C005900D92A236B107D9F7CF
:1000400020E0A2E6B0E001C01D92A436B207E1F7BD
:100050004BD167C1D5CF97B1982B97B9379A369ABC
:100060003699FECF369A369B02C03798FCCF84B1C2
:1000700025B197B19E7E97B990E0922B08951F927B
:100080000F920FB60F9211248F939F9383EA8FBD27
:1000900081E090E090936300809362009F918F9144
:1000A0000F900FBE0F901F90189590936300809350
:1000B00062000895809162009091630008959C0110
:1000C000215031092330310508F4C5CF80E090E09C
:1000D000089520E030E02817390724F400002F5F4E
:1000E0003F4FF9CF089520E030E0281739074CF44E
:1000F000E9EFF0E03197F1F700C000002F5F3F4FCC
:10010000F4CF089598B321E030E0082E01C0220F0B
:100110000A94EAF7922798BB089598B321E030E05B
:10012000082E01C0220F0A94EAF7922B98BB08957B
:1001300098B321E030E0082E01C0220F0A94EAF7BC
:100140002095292328BB0895F89404B603FE07C020
:1001500084B7877F84BF81B5886181BD11BCA895B4
:1001600088E181BD8EE481BD7894089580B78F7C4D
:1001700080BF80B78F7C80BF80B7816080BF80B731
:10018000817F80BF89B7846089BF78941FBC089540
:10019000B89AC098EBDFD8CF379885B7877E806153
:1001A00085BF85B7806285BF85B7806285BF88952A
:1001B00085B78F7D85BF85B78F7D85BF379A0895B9
:1001C0001F93CF93DF9388E10FB6F89481BD11BCE4
:1001D0000FBE7894C3E0D0E011E083EE94E020916C
:1001E0006200309163002130310539F428B32127B2
:1001F00028BB10926300109262000197009779F774
:10020000C0988FE090E06FDF2197209731F7F89446
:100210002CE088E190E00FB6F894A89581BD0FBE60
:1002200021BDDF91CF911F910895FF920F931F93EE
:10023000CF93DF938C01789484E690E054DFC3E0A1
:10024000D0E0FF24F39420E030E00217130784F09D
:100250008091620090916300019739F488B38F25F3
:1002600088BB10926300109262002F5F3F4FEDCF6A
:10027000C0988FE090E037DF2197209721F7F8941E
:10028000DF91CF911F910F91FF9008951F920F92D0
:100290000FB60F9211242F933F934F935F936F9359
:1002A0007F938F939F93AF93BF93EF93FF9381E0DF
:1002B00090E0909361008093600080E991E0B5DF69
:1002C00088EC90E0B2DFFF91EF91BF91AF919F91E9
:1002D0008F917F916F915F914F913F912F910F90EF
:1002E0000FBE0F901F90189553DF82E090E0E7DE7D
:1002F00080916000909161000197D1F710926100A8
:100300001092600082E090E0A6DEEC0183E090E0D5
:10031000A2DEC335D3401CF0E6DE52DFE9CF3CDF7E
:06032000E7CFF894FFCFC7
:020326000100D4
:00000001FF
